:020000040800F2
:10000000A8220020714D0008654D0008674D0008CA
:100010006D4D0008694D00086B4D00086F4D0008DC
:100020006F4D00086F4D00086F4D00086F4D0008C0
:100030006F4D00086F4D0008872D00089D2E0008A9
:10004000AD3F0008B73F0008C13F0008CB3F0008A4
:10005000D53F0008DF3F0008E93F0008F33F0008F4
:10006000FD3F000807400008114000081B40000841
:10007000254000082F400008394000084340000890
:100080004D40000857400008614000086B400008E0
:10009000754000087F400008894000089340000830
:1000A0009D400008A7400008B1400008BB40000880
:1000B000C5400008CF400008D9400008E3400008D0
:1000C000ED400008F7400008014100080B4100081E
:1000D000154100081F41000829410008334100086C
:0C00E0003D410008474100085141000864
:1000EC000000000000000000000000000000000004
:1000FC0000000000000000000000000000000000F4
:10010C0000000000000000000000000000000000E3
:10011C00000080018001800180018001800180014C
:10012C0080018001800180018001800100000000BD
:10013C0080018001000000000000000000000000B1
:10014C0000000000CC00CC00CC00CC00CC00CC00DB
:10015C000000000000000000000000000000000093
:10016C000000000000000000000000000000000083
:10017C00000000000000000000000000600C600C9B
:10018C00600C30063006FE1FFE1F300638071803C1
:10019C00FE1FFE1F180318038C018C018C0100003C
:1001AC0000008000E003F80F9C0E8C1C8C188C0057
:1001BC009800F801E007800E801C8C188C189C1895
:1001CC00B80CF00FE003800080000000000000007D
:1001DC000000000000000E181B0C110C110611067B
:1001EC00110311039B018E01C038C06C6044604444
:1001FC00304430441844186C0C38000000000000E7
:10020C000000E001F0033807180618063003F0016F
:10021C00F000F8009C310E33061E061C061C063F2F
:10022C00FC73F02100000000000000000000000042
:10023C00000000000C000C000C000C000C000C006A
:10024C0000000000000000000000000000000000A2
:10025C000000000000000000000000000000000092
:10026C000000000200038001C000C00060006000BC
:10027C0030003000300030003000300030003000F2
:10028C0060006000C000C00080010003000200009C
:10029C00000020006000C00080018001000300030A
:1002AC000006000600060006000600060006000612
:1002BC000003000380018001C000600020000000EA
:1002CC00000000000000000000000000C000C000A2
:1002DC00D806F807E00130033807000000000000E2
:1002EC000000000000000000000000000000000002
:1002FC0000000000000000000000000080018001F0
:10030C00800180018001FC3FFC3F80018001800165
:10031C0080018001000000000000000000000000CF
:10032C0000000000000000000000000000000000C1
:10033C0000000000000000000000000000000000B1
:10034C00000080018001000100018000000000001D
:10035C000000000000000000000000000000000091
:10036C000000000000000000E007E00700000000B3
:10037C000000000000000000000000000000000071
:10038C000000000000000000000000000000000061
:10039C000000000000000000000000000000000051
:1003AC000000C000C00000000000000000000000C1
:1003BC000000000C000C0006000600060003000301
:1003CC0000038003800180018001C000C000C000D8
:1003DC006000600000000000000000000000000051
:1003EC000000E003F007380E180C0C180C180C1851
:1003FC000C180C180C180C180C180C18180C380EAF
:10040C00F007E00300000000000000000000000006
:10041C00000000018001C001F001980188018001F9
:10042C0080018001800180018001800180018001B8
:10043C0080018001000000000000000000000000AE
:10044C000000E003F80F180C0C180C18001800181A
:10045C00000C000600038001C00060003000180092
:10046C00FC1FFC1F0000000000000000000000004A
:10047C000000E001F807180E0C0C0C0C000C000628
:10048C00C003C007000C001800180C180C18180C2E
:10049C00F807E0030000000000000000000000006E
:1004AC000000000C000E000F000F800DC00C600C43
:1004BC00600C300C180C0C0CFC3FFC3F000C000CBE
:1004CC00000C000C00000000000000000000000008
:1004DC000000F80FF80F180018000C00EC03FC07D4
:1004EC001C0E001C0018001800180C181C0C180E00
:1004FC00F807E0030000000000000000000000000E
:10050C000000C007F00F381C181818000C00CC03A2
:10051C00EC0F3C0E1C1C0C180C180C18181C380E6C
:10052C00F007E003000000000000000000000000E5
:10053C000000FC1FFC1F000C0006000600038003DB
:10054C008001C001C000E00060006000700030005D
:10055C00300030000000000000000000000000002F
:10056C000000E003F007380E180C180C180C3806B5
:10057C00F007F007180C0C180C180C180C18380C89
:10058C00F80FE00300000000000000000000000075
:10059C000000E003F007380E1C0C0C180C180C189B
:1005AC001C1C381EF81BE0190018000C000C1C0E4B
:1005BC00F807F0010000000000000000000000003F
:1005CC00000000000000000000000000800180011D
:1005DC00000000000000000000000000000000000F
:1005EC0080018001000000000000000000000000FD
:1005FC0000000000000000000000000080018001ED
:10060C0000000000000000000000000000000000DE
:10061C00800180010001000180000000000000004A
:10062C0000000000000000000000000000000000BE
:10063C000010001C800FE003F8001800F800E00325
:10064C00800F001C001000000000000000000000E3
:10065C00000000000000000000000000000000008E
:10066C00F81F000000000000F81F00000000000050
:10067C00000000000000000000000000000000006E
:10068C00000000000000000000000000000000005E
:10069C0008003800F001C007001F0018001FC00739
:1006AC00F00138000800000000000000000000000D
:1006BC000000E003F80F180C0C180C180018000CB4
:1006CC00000600038001C000C000C0000000000054
:1006DC00C000C0000000000000000000000000008E
:1006EC0000000000E00718180420C229224A114417
:1006FC0009440944094409221113E20C0240042064
:10070C001818E007000000000000000000000000C6
:10071C00000080038003C006C006C006600C600C9D
:10072C00301830183018F83FF83F1C700C600C6013
:10073C0006C006C000000000000000000000000021
:10074C000000FC03FC0F0C0C0C180C180C180C0CF7
:10075C00FC07FC0F0C180C300C300C300C300C1847
:10076C00FC1FFC070000000000000000000000005F
:10077C000000C007F01F38381C300C7006600600F3
:10078C000600060006000600060006600C701C3011
:10079C00F01FE00700000000000000000000000057
:1007AC000000FE03FE0F060E061806180630063073
:1007BC000630063006300630063006180618060ECF
:1007CC00FE0FFE030000000000000000000000000F
:1007DC000000FC3FFC3F0C000C000C000C000C005B
:1007EC00FC1FFC1F0C000C000C000C000C000C007F
:1007FC00FC3FFC3F00000000000000000000000077
:10080C000000F83FF83F18001800180018001800F6
:10081C00F81FF81F1800180018001800180018000E
:10082C00180018000000000000000000000000008C
:10083C000000E00FF83F3C780E6006E007C00300B4
:10084C00030003FE03FE03C007C006C00EC03CF04D
:10085C00F83FE00F00000000000000000000000066
:10086C0000000C300C300C300C300C300C300C30D8
:10087C00FC3FFC3F0C300C300C300C300C300C308E
:10088C000C300C30000000000000000000000000E4
:10089C0000008001800180018001800180018001C5
:1008AC008001800180018001800180018001800134
:1008BC00800180010000000000000000000000002A
:1008CC0000000006000600060006000600060006F2
:1008DC000006000600060006000618061806380773
:1008EC00F003E00100000000000000000000000028
:1008FC00000006300618060C060606038601C60024
:10090C0066007600DE008E0106030606060C06184D
:10091C00063006600000000000000000000000002F
:10092C000000180018001800180018001800180013
:10093C0018001800180018001800180018001800EB
:10094C00F81FF81F0000000000000000000000006D
:10095C0000000EE01EF01EF01EF036D836D836D849
:10096C0036D866CC66CC66CCC6C6C6C6C6C6C6C6A7
:10097C0086C386C3000000000000000000000000D9
:10098C0000000C301C303C303C306C306C30CC30C7
:10099C00CC308C310C330C330C360C360C3C0C3C00
:1009AC000C380C30000000000000000000000000BB
:1009BC000000E007F81F1C380E70066003C003C06F
:1009CC0003C003C003C003C003C006600E701C3814
:1009DC00F81FE0070000000000000000000000000D
:1009EC000000FC0FFC1F0C380C300C300C300C30A1
:1009FC000C18FC1FFC070C000C000C000C000C006D
:100A0C000C000C00000000000000000000000000C2
:100A1C000000E007F81F1C380E70066003E003C0EE
:100A2C0003C003C003C003C007E006630E3F1C3CB9
:100A3C00F83FE0F700C000000000000000000000DC
:100A4C000000FE0FFE1F0638063006300630063852
:100A5C00FE1FFE0706030606060C061806180630CF
:100A6C0006300660000000000000000000000000DE
:100A7C000000E003F80F1C0C0C180C180C001C00E8
:100A8C00F803E00F001E0038063006300E301C1C38
:100A9C00F80FE0070000000000000000000000005C
:100AAC000000FE7FFE7F80018001800180018001BB
:100ABC008001800180018001800180018001800122
:100ACC008001800100000000000000000000000018
:100ADC0000000C300C300C300C300C300C300C3066
:100AEC000C300C300C300C300C300C300C30181826
:100AFC00F81FE007000000000000000000000000EC
:100B0C00000003600630063006300C180C180C1868
:100B1C00180C180C380E3006300670076003600392
:100B2C00C001C00100000000000000000000000037
:100B3C0000000360C361C361C3616633663366330F
:100B4C006633663366336C1B6C1B6C1B2C1A3C1E99
:100B5C00380E380E000000000000000000000000FD
:100B6C0000000FE00C7018303018700C600EC007CD
:100B7C0080038003C003E006700C301C18180C3086
:100B8C000E6007E000000000000000000000000004
:100B9C00000003C006600C301C383818300C60069E
:100BAC00E007C00380018001800180018001800189
:100BBC008001800100000000000000000000000027
:100BCC000000FC7FFC7F006000300018000C000669
:100BDC0000038001C0006000300018000C0006000B
:100BEC00FE7FFE7F000000000000000000000000FF
:100BFC000000E003E0036000600060006000600043
:100C0C0060006000600060006000600060006000D8
:100C1C0060006000600060006000E003E003000022
:100C2C00000030003000600060006000C000C000B8
:100C3C00C000C0018001800180010003000300039B
:100C4C00000600060000000000000000000000008C
:100C5C000000E003E00300030003000300030003B3
:100C6C000003000300030003000300030003000360
:100C7C0000030003000300030003E003E003000093
:100C8C0000000000C001C001600360036003300677
:100C9C003006180C180C00000000000000000000CA
:100CAC000000000000000000000000000000000038
:100CBC000000000000000000000000000000000028
:100CCC000000000000000000000000000000000018
:100CDC000000FFFFFFFF000000000000000000000C
:100CEC0000000C000C000C000C000C000C000000B0
:100CFC0000000000000000000000000000000000E8
:100D0C0000000000000000000000000000000000D7
:100D1C00000000000000000000000000F003F807D5
:100D2C001C0C0C0C000FF00FF80C0C0C0C0C1C0F0A
:100D3C00F80FF01800000000000000000000000098
:100D4C00000018001800180018001800D803F80F3D
:100D5C00380C181818181818181818181818380CDF
:100D6C00F80FD80300000000000000000000000095
:100D7C00000000000000000000000000C003F007AD
:100D8C00300E180C1800180018001800180C300E33
:100D9C00F007C0030000000000000000000000008D
:100DAC00000000180018001800180018C01BF01FD5
:100DBC00301C181818181818181818181818301C6F
:100DCC00F01FC01B0000000000000000000000002D
:100DDC00000000000000000000000000C003F00F45
:100DEC00300C1818F81FF81F180018003818301C91
:100DFC00F00FC00700000000000000000000000021
:100E0C000000800FC00FC000C000C000F007F0074A
:100E1C00C000C000C000C000C000C000C000C000C6
:100E2C00C000C00000000000000000000000000036
:100E3C00000000000000000000000000E00DF80FB2
:100E4C00180E0C0C0C0C0C0C0C0C0C0C0C0C180EBA
:100E5C00F80FE00D000C0C0C1C06F807F00100005C
:100E6C00000018001800180018001800D807F80F18
:100E7C00381C1818181818181818181818181818C2
:100E8C0018181818000000000000000000000000F6
:100E9C000000C000C000000000000000C000C00046
:100EAC00C000C000C000C000C000C000C000C00036
:100EBC00C000C000000000000000000000000000A6
:100ECC000000C000C000000000000000C000C00016
:100EDC00C000C000C000C000C000C000C000C00006
:100EEC00C000C000C000C000C000F80078000000C6
:100EFC0000000C000C000C000C000C000C0C0C0680
:100F0C000C038C01CC006C00FC009C018C030C03CA
:100F1C000C060C0C0000000000000000000000009B
:100F2C000000C000C000C000C000C000C000C00075
:100F3C00C000C000C000C000C000C000C000C000A5
:100F4C00C000C00000000000000000000000000015
:100F5C000000000000000000000000007C3CFF7E50
:100F6C00C7E383C183C183C183C183C183C183C1EF
:100F7C0083C183C1000000000000000000000000DD
:100F8C000000000000000000000000009807F80FAF
:100F9C00381C1818181818181818181818181818A1
:100FAC0018181818000000000000000000000000D5
:100FBC00000000000000000000000000C003F00F63
:100FCC00300C181818181818181818181818300C7D
:100FDC00F00FC00300000000000000000000000043
:100FEC00000000000000000000000000D803F80F13
:100FFC00380C181818181818181818181818380C3D
:10100C00F80FD8031800180018001800180000007A
:10101C00000000000000000000000000C01BF01FDA
:10102C00301C181818181818181818181818301CFC
:10103C00F01FC01B00180018001800180018000042
:10104C00000000000000000000000000B007F003EA
:10105C0070003000300030003000300030003000C4
:10106C003000300000000000000000000000000014
:10107C00000000000000000000000000E003F0038E
:10108C00380E180C3800F003C007000C180C380E82
:10109C00F007E0030000000000000000000000006A
:1010AC00000000008000C000C000C000F007F00786
:1010BC00C000C000C000C000C000C000C000C00024
:1010CC00C0078007000000000000000000000000C6
:1010DC0000000000000000000000000018181818A4
:1010EC001818181818181818181818181818381C50
:1010FC00F01FE019000000000000000000000000DC
:10110C000000000000000000000000000C18180C8B
:10111C00180C180C300630063006600360036003B0
:10112C00C001C00100000000000000000000000031
:10113C00000000000000000000000000C141C1419F
:10114C00C3616363636363633636363636361C1CA1
:10115C001C1C1C1C00000000000000000000000013
:10116C000000000000000000000000001C38381CCB
:10117C00300C600660036003600360036006300C93
:10118C00381C1C38000000000000000000000000AB
:10119C0000000000000000000000000018303018B3
:1011AC0030187018600C600CE00CC006C006800390
:1011BC008003800380018001C001F00070000000FA
:1011CC00000000000000000000000000FC1FFC1FDD
:1011DC00000C000600038001C00060003000180005
:1011EC00FC1FFC1F000000000000000000000000BD
:1011FC00000000038001C000C000C000C000C0009F
:10120C00C00060006000300060004000C000C00002
:10121C00C000C000C000C00080010003000000003E
:10122C00000080018001800180018001800180012B
:10123C00800180018001800180018001800180019A
:10124C00800180018001800180018001800100000B
:10125C0000006000C000C00180018001800180019D
:10126C0080010003000300060003000180018001DF
:10127C008001800180018001C0006000000000003E
:10128C000000000000000000000000000000000052
:10129C00F010F81F080F0000000000000000000014
:1012AC000000000000000000000000000000000032
:1012BC0081B00021009102E00099491C0091009935
:1012CC00642202FB00F29142F6D301B07047002178
:1012DC000022110001E0401C491C0278002AFAD1BE
:1012EC000800704780B500F03AFD00F060FDDFF8B3
:1012FC004809006849F22031884240F0FD80052001
:10130C00FFF7D6FF4FF40041E52000F0CDFC0121A2
:10131C00002000F0C9FC4FF48071012000F0C4FCE7
:10132C004FF4E061022000F0BFFC41F230010320D9
:10133C0000F0BAFC0021042000F0B6FC40F20221BF
:10134C00082000F0B1FC0021092000F0ADFC0021C8
:10135C000A2000F0A9FC00210C2000F0A5FC0021C3
:10136C000D2000F0A1FC00210F2000F09DFC0021BD
:10137C00102000F099FC0021112000F095FC0021B8
:10138C00122000F091FC0021132000F08DFC1420A1
:10139C00FFF78EFF41F2B071102000F085FC40F297
:1013AC003711112000F080FC0520FFF781FF40F27F
:1013BC003911122000F078FC0520FFF779FF4FF46B
:1013CC00E851132000F070FC1321292000F06CFC74
:1013DC000520FFF76DFF0021202000F065FC0021A7
:1013EC00212000F061FC0621302000F05DFC40F271
:1013FC000111312000F058FC0321322000F054FC84
:10140C004FF48371352000F04FFC40F6023136204A
:10141C0000F04AFC40F20231372000F045FC40F26B
:10142C000771382000F040FC0721392000F03CFC0B
:10143C004FF4C0613C2000F037FC40F20B213D2002
:10144C0000F032FC0021502000F02EFCEF21512046
:10145C0000F02AFC0021522000F026FC40F23F1143
:10146C00532000F021FC4FF41C51602000F01CFCB8
:10147C000121612000F018FC00216A2000F014FC0E
:10148C000021802000F010FC0021812000F00CFCD9
:10149C000021822000F008FC0021832000F004FCD5
:1014AC000021842000F000FC0021852000F0FCFBD2
:1014BC001021902000F0F8FB0021922000F0F4FBAA
:1014CC000321932000F0F0FB4FF48871952000F07D
:1014DC00EBFB0021972000F0E7FB0021982000F0A7
:1014EC00E3FB41F21801032000F0DEFB40F2731124
:1014FC00072000F0D9FB60E1DFF83C07006848F2F8
:10150C001231884240F059811021012000F0CCFBAF
:10151C00A021002000F0C8FB0121032000F0C4FB37
:10152C000120FFF7C5FE0021032000F0BDFB0421C4
:10153C002B2000F0B9FB1821282000F0B5FB052169
:10154C001A2000F0B1FB0521252000F0ADFB002195
:10155C00192000F0A9FB73211C2000F0A5FB7421BD
:10156C00242000F0A1FB01211E2000F09DFBC121D5
:10157C00182000F099FB0120FFF79AFEE1211820BA
:10158C0000F092FBF121182000F08EFB0620FFF7F3
:10159C008FFEF521182000F087FB0620FFF788FE50
:1015AC0009211B2000F080FB0120FFF781FE112197
:1015BC001F2000F079FB0E21202000F075FB81210B
:1015CC001E2000F071FB0120FFF772FE00219D2010
:1015DC0000F06AFB0021C02000F066FB00210E2009
:1015EC0000F062FB00210F2000F05EFB00211020B8
:1015FC0000F05AFB0021112000F056FB00211220B4
:10160C0000F052FB0021132000F04EFB00211420AF
:10161C0000F04AFB0021152000F046FB00211620AB
:10162C0000F042FB0021172000F03EFB012134208A
:10163C0000F03AFB0021352000F036FB00214B2056
:10164C0000F032FB00214C2000F02EFB00214E203C
:10165C0000F02AFB00214F2000F026FB0021502037
:10166C0000F022FB00213C2000F01EFB00213D205D
:10167C0000F01AFB01213E2000F016FB3F213F2019
:10168C0000F012FB0221402000F00EFB0221412051
:10169C0000F00AFB0021422000F006FB0021432051
:1016AC0000F002FB0021442000F0FEFA002145204E
:1016BC0000F0FAFAEF21462000F0F6FA002147205C
:1016CC0000F0F2FA0021482000F0EEFA0121492046
:1016DC0000F0EAFA3F214A2000F0E6FA08211D202A
:1016EC0000F0E2FA0021862000F0DEFA302187209B
:1016FC0000F0DAFA0221882000F0D6FA05218920C0
:10170C0000F0D2FA01218D2000F0CEFA20218B209E
:10171C0000F0CAFA0121332000F0C6FA012137206B
:10172C0000F0C2FA0021762000F0BEFA10218F20C2
:10173C0000F0BAFA6721902000F0B6FA0721912048
:10174C0000F0B2FA6521922000F0AEFA0721932046
:10175C0000F0AAFA0121942000F0A6FA7621952037
:10176C0000F0A2FA5621962000F09EFA0021972054
:10177C0000F09AFA0621982000F096FA032199209D
:10178C0000F092FA00219A2000F08EFA50210120EC
:10179C0000F08AFA0421052000F086FA802100204E
:1017AC0000F082FA01213B2000F07EFA0420FFF7C2
:1017BC007FFD2021002000F077FA01BD80B5FFF7F6
:1017CC0091FD002000F0BCF949F22031884205D18E
:1017DC00DFF8640449F22031016006E0DFF85804B8
:1017EC0048F212310160FFF77DFD01BD01B4DFF855
:1017FC007006BDF80010018001B0704780B5DFF8AD
:10180C006816C0B200F0B2F801BD38B5040000256E
:10181C0040F23F11002000F021F8DFF81C040068B2
:10182C0049F22031884201D100F008FA002504E089
:10183C00200080B200F04FFA6D1CB5F5963FF7D33F
:10184C00DFF8F403006849F22031884205D1012207
:10185C000421DFF8180600F0A4FA31BD10B50C0015
:10186C00DFF8D413096849F2203291420BD1C0B28F
:10187C00010089B2202000F017FA210089B2212042
:10188C0000F012FA16E0DFF8B013096848F21232D1
:10189C0091420FD1C0B2010089B2422000F004FA8B
:1018AC00C4F3002189B2432000F0FEF9E1B24420D8
:1018BC0000F0FAF910BD2DE9F0410C0015000026DE
:1018CC005FF0000800270700210089B23800C0B281
:1018DC00FFF7C4FF0020060014E0DFF85C0300688B
:1018EC0049F22031884205D101220421DFF87C0520
:1018FC0000F057FA7F1C210089B23800C0B2FFF704
:10190C00ADFF761C182E22D2DFF82C03006849F2AA
:10191C002031884201D100F091F95FF0000806E017
:10192C00DFF83C05008800F0D6F918F10108B8F191
:10193C00100FD2D235F81600012111FA08F1084225
:10194C00EED1DFF82005008800F0C5F9EDE7BDE821
:10195C00F08110B5203AD2B23023DFF8144503FBE6
:10196C00024289B2C0B2FFF7A6FF10BDF8B5040061
:10197C000D00002640F23F1709E02A78390089B2A1
:10198C002000C0B2FFF7E5FF103F6D1C761C2878D5
:10199C00002804D00120142E01D2C007EDD4F1BDD3
:1019AC002DE9F84F04000F005FF0000B5FF0000909
:1019BC0000255FF0000840F23F165FF0000A380087
:1019CC00FFF785FC8246BAF1C90F11D340F23F11E3
:1019DC002000C0B2FFF742FF2000C0B2FFF70EFF9D
:1019EC00DFF890142000C0B2FFF7C0FFBDE8F18F04
:1019FC0040F23F112000C0B2FFF730FF2CE0202254
:101A0C00494689B22000C0B2FFF7A3FFB9F1100913
:101A1C001BF1010BC345F2D3B8F101004042C719C9
:101A2C00B8F1010010EB0A0A183440F23F160025F9
:101A3C003A78310089B22000C0B2FFF78AFF6D1CE2
:101A4C00103E7F1C18F101083878202804D15FF073
:101A5C000008B6B2B6F110095046B0F1010A0028E0
:101A6C00C4D0142DE4D13878202801D17F1CDBE7B9
:101A7C005FF0000BCEE710B5040000220421DFF864
:101A8C00EC0300F08EF9E4B2210089B2DFF8E80330
:101A9C0000F058FA8021DFF8E00300F057FA002834
:101AAC00F8D110BD10B504007020FFF7E4FF002141
:101ABC00DFF8C40300F046FA8021DFF8BC0300F025
:101ACC0045FA0028F8D1E4B2210089B2DFF8A80366
:101ADC0000F038FA8021DFF8A00300F037FA002874
:101AEC00F8D101220421DFF8840300F05AF910BD6B
:101AFC0010B50C00C0B2FFF7D5FF7220FFF7BBFF8B
:101B0C00A4B2210ADFF8700300F01CFA8021DFF880
:101B1C00680300F01BFA0028F8D1E1B2DFF8580393
:101B2C0000F010FA8021DFF8500300F00FFA0028C3
:101B3C00F8D101220421DFF8340300F032F910BD92
:101B4C0038B500240025DFF8301309884FF6C7722A
:101B5C001140DFF824231180DFF81C13098851F0A1
:101B6C000801DFF814231180C0B2FFF79BFF73202C
:101B7C00FFF781FF0020050017E0FF21DFF8F802D6
:101B8C0000F0E0F98021DFF8F00200F0DFF9002826
:101B9C00F8D10121DFF8E00200F0D8F90028F8D0E4
:101BAC00DFF8D40200F0D0F96D1CEDB2052DE4D3B2
:101BBC00FF21DFF8C40200F0C5F98021DFF8B8027C
:101BCC0000F0C4F90028F8D10121DFF8AC0200F0D4
:101BDC00BDF90028F8D0DFF8A00200F0B5F9040038
:101BEC00FF21DFF8940200F0ADF98021DFF88802C4
:101BFC0000F0ACF90028F8D10121DFF87C0200F0EC
:101C0C00A5F90028F8D0DFF8700200F09DF950EA31
:101C1C00042401220421DFF8540200F0C2F8DFF89A
:101C2C00580200884FF6C7710840DFF84C12088044
:101C3C00200080B232BD00000000002080B52220C0
:101C4C00FFF730FF7220FFF716FF01BD70B50400DF
:101C5C000D00002600224FF40041DFF8200200F0B6
:101C6C00A0F800228021DFF8140200F09AF800227C
:101C7C000421DFF8F80100F094F8E4B22002060029
:101C8C00EDB22E43310089B2DFF8EC0100F05AF9C5
:101C9C008021794800F05AF90028F9D10122042159
:101CAC00724800F07EF870BD80B5754A126849F232
:101CBC0020339A4204D189B2C0B2FFF719FF09E070
:101CCC006F4A126848F212339A4203D1C9B2C0B2B9
:101CDC00FFF7BCFF01BD10B504006948006849F26C
:101CEC002031884214D1A4B2210A634800F02AF9A9
:101CFC008021614800F02AF90028F9D1E1B25E4850
:101D0C0000F020F980215C4800F020F90028F9D17E
:101D1C005B48006848F2123188421FD100224FF410
:101D2C000041564800F03DF801228021534800F054
:101D3C0038F8002204214D4800F033F8210089B214
:101D4C004D4800F0FFF880214B4800F0FFF80028C8
:101D5C00F9D101220421454800F023F810BD80B5CB
:101D6C000420ADF8000003208DF8020010208DF83F
:101D7C00030000A93D4800F0F3F848F28000ADF8EC
:101D8C00000000A93D4800F0EBF801224FF400419F
:101D9C003A4800F006F801228021384800F001F89A
:101DAC0001BD80B5D2B289B200F054F901BD00B5C5
:101DBC0087B00121082000F08AFA01214FF48040FD
:101DCC0000F095FA4FF47040ADF8000003208DF848
:101DDC00020018208DF8030000A9244800F0C0F878
:101DEC00254800F04FF80020ADF804004FF4827045
:101DFC00ADF806002248006849F22031884209D12A
:101E0C000020ADF808000220ADF80A000120ADF862
:101E1C000C000FE01A48006848F21231884209D1D0
:101E2C004FF40060ADF808000020ADF80A00002067
:101E3C00ADF80C004FF40070ADF80E000020ADF8BA
:101E4C0010000020ADF8120001A90B4800F04CF86E
:101E5C000121094800F068F807B000BD000000003F
:101E6C008C21002004000020704C0008000C014064
:101E7C00EC000008884C00080038004000140140B9
:101E8C000000002080B51549884210D014498842C2
:101E9C0018D01449884220D101214FF4805000F011
:101EAC0036FA00214FF4805000F031FA15E0012190
:101EBC004FF4804000F03BFA00214FF4804000F0DA
:101ECC0036FA0AE001214FF4004000F030FA00210C
:101EDC004FF4004000F02BFAFFE701BD0038004042
:101EEC00003C00400030014010B4002203881A006E
:101EFC0012F441520B884C8823438C882343CC88A2
:101F0C0023430C8923434C8923438C892343CC8959
:101F1C0023431A430280828B4FF2FF731A40828351
:101F2C00098A018210BC7047C9B2002904D001880B
:101F3C0051F04001018004E001884FF6BF7211405E
:101F4C000180704781817047808970470022008929
:101F5C00084201D0012200E000221000C0B27047FC
:101F6C00F0B400220026002400250023002791F85D
:101F7C0003C01CF00F0C624691F803C05FEACC6CF6
:101F8C0001D58B781A430B781B0621D003680024EB
:101F9C0006E0CD78482D02D10125A5400561641CD1
:101FAC00082C14D20125A5400E882E40AE42F6D145
:101FBC00A5000F2616FA05F7BB4312FA05F52B43BD
:101FCC00CD78282DE5D10125A5404561E7E70360D3
:101FDC000B884FF48074A34226D34368002420E07E
:101FEC00012514F10806B5400E882E40AE4217D1DB
:101FFC00A5000F2616FA05F7BB4312FA05F52B437D
:10200C00CD78282D04D1012514F10806B540456181
:10201C00CD78482D04D1012514F10806B540056191
:10202C00641C082CDCD34360F0BC70470022806831
:10203C0080B2084201D0012200E000221000C0B2A0
:10204C007047C06880B2704789B20161704789B22D
:10205C0041617047D2B2002A02D089B2016101E01D
:10206C0089B24161704710B450F8041B81B1026809
:10207C001218001D50F8043BDC0744BFA9F1010401
:10208C00E31852F8044B43F8044B091FF9D1EBE762
:10209C0010BC7047DFF8FC02006850F00100DFF85C
:1020AC00F4120860DFF8F0020068DFF8F012084064
:1020BC00DFF8E4120860DFF8DC020068DFF8E012F9
:1020CC000840DFF8D0120860DFF8C802006830F46E
:1020DC008020DFF8C0120860DFF8BC02006830F422
:1020EC00FE00DFF8B4120860DFF8B80200210160CE
:1020FC007047DFF8A012096831F48031DFF89422C0
:10210C001160DFF89012096831F48021DFF8842225
:10211C001160B0F5803F03D0B0F5802F09D011E0ED
:10212C00DFF87002006850F48030DFF86812086045
:10213C0008E0DFF86002006850F4A020DFF85412C9
:10214C000860FFE7704780B5002000900020002158
:10215C00312000F0FCF801000098401C0090C9B23E
:10216C00002903D10098B0F5A06FF1D1312000F017
:10217C00EEF8002801D0012000E00020C0B202BD22
:10218C000022854B1B681A0032F47C120843024370
:10219C008148026070478449C0B2086070470021D2
:1021AC007D4A126811008908890001437A48016050
:1021BC0070477948006810F00C0070470021764A8F
:1021CC001268110031F0F00101437348016070474F
:1021DC000021714A1268110031F4E06101436E482C
:1021EC000160704700216C4A1268110031F4605193
:1021FC0051EAC0016848016070470021664A1268C4
:10220C00110031F44041014363480160704730B420
:10221C0000220021002300245F4D2D6815F00C05D1
:10222C002A00002A04D0042A05D0082A06D021E06E
:10223C005F49016020E05F4901601DE05649096873
:10224C0011F47011890C891C534A126812F48033F2
:10225C00002B03D1584A514301600AE04E4A1268E0
:10226C00920303D5554A5143016002E0514A514350
:10227C00016001E04E4901604749096811F0F00224
:10228C0012094F49545C0168E140416042490968B8
:10229C0011F4E062120A4A49545C4168E1408160E1
:1022AC003D49096811F46052D20A4549545C4168B1
:1022BC00E140C1603849096811F44042920B414930
:1022CC00545CC168B1FBF4F1016130BC7047C9B218
:1022DC00002905D03C49096808433B49086005E0E2
:1022EC003949096831EA0000374908607047C9B2BA
:1022FC00002905D03549096808433449086005E0D0
:10230C003249096831EA0000304908607047C9B2A7
:10231C00002905D02E49096808432D49086005E0BD
:10232C002B49096831EA0000294908607047C9B295
:10233C00002905D02749096808432649086005E0AB
:10234C002449096831EA000022490860704710B43A
:10235C00002200230021C0B24409E4B22200012A69
:10236C0002D10C490B6806E0022A02D10F490B6816
:10237C0001E019490B68C0B210F01F020120904017
:10238C00034201D0012100E000210800C0B210BCC2
:10239C007047000000100240041002400000FFF8DB
:1023AC00FFFFF6FE0810024060004242201002407F
:1023BC0000127A00001BB70000093D00808D5B0005
:1023CC00304D0008984D0008181002401C100240B7
:1023DC000C1002401010024024100240F8B5050009
:1023EC000E0014000027DFF878070078012802D3CC
:1023FC001220207020E02878401E03280ED800F010
:10240C009FFC0700300000F03BFBC0B2102808D343
:10241C00380000F099FC0B2020700DE0012020709A
:10242C000AE0310015F10F0000F01BFB050038002D
:10243C0000F08AFC00202070F1BD80B500F0D0FCCB
:10244C0000F011FA00F036FA00F092FA00F0E3F91D
:10245C0000F050FD00F04EFA00F06BFA00F0C1FCF9
:10246C0000F072FD01BD10B50024DFF85C080078A7
:10247C00012841D100F064FC0400DFF8E406007888
:10248C00012806D3DFF8D8060078401EDFF8D016F6
:10249C000870DFF8CC06007800282AD1DFF8C406D3
:1024AC000078002825D100F0CCFADFF8200800785D
:1024BC00DFF81C18097888421BD0DFF81008007868
:1024CC00DFF8101851F82000DFF80C180860DFF85E
:1024DC0008080068806B401CDFF8FC1709688863EB
:1024EC00DFF8F8070068401CDFF8F017086000F010
:1024FC0040FC200000F028FC10BD80B5DFF8C807B8
:10250C000078002819D100F09CFADFF8C407DFF836
:10251C00BC1709780170DFF8B4070078DFF8B4173E
:10252C0051F82000DFF8B0170860DFF89807DFF8E3
:10253C00A8170968016000F00AFC01BD10B5002461
:10254C00022000F0B5FD00F0FBFB0400DFF8900763
:10255C0000210160200000F0F7FB642000F0A8FDD2
:10256C0000F0EEFB0400DFF87C07DFF87417096855
:10257C000160DFF8740701210170200000F0E4FB1A
:10258C0010BD38B5002400F07FFC00F0D9FB04002E
:10259C00DFF858070068401CDFF85017086020006F
:1025AC0000F0D2FBDFF82007007801285ED1DFF8BD
:1025BC0040070078002803D0022805D002D309E098
:1025CC0001200CE000200AE00120DFF82417012292
:1025DC000A7004E00120DFF8181700220A70C0B25C
:1025EC00002843D0DFF80C07056820E0002085F8B0
:1025FC00310095F83000000715D4DFF8FC060078A0
:10260C0095F836100843DFF8F016087095F834008A
:10261C00DFF8E816405C95F83510084395F834104F
:10262C00DFF8D82688546D69200000F08DFB95F8F2
:10263C0032001F281AD000F083FB0400E88D00281C
:10264C00F1D0E88D401EE88580B20028EBD195F8DA
:10265C00300037210842C9D095F8300010F0C8007E
:10266C0085F83000012085F83100C2E731BD4FF408
:10267C008F707047F8B50400A07ADFF88456405D7F
:10268C00C0B20519ED7ADFF87866AD5DC0B2EDB277
:10269C0015EBC005EDB2DFF83C6656F82560002757
:1026AC00F785716296F83010914386F8301086F8F1
:1026BC00313096F83010090713D4DFF83C1609783E
:1026CC0096F836201143DFF830261170C0B2DFF8CF
:1026DC002C16415C96F835201143C0B2DFF81C264D
:1026EC0081542100300000F051F8306A002804D0E9
:1026FC00316A300000F063F8F4612800C0B2F2BD1A
:10270C00DFF8C0150968C861DFF8B815096891F8D9
:10271C0034100918C97ADFF8AC25126892F8352004
:10272C001143DFF8A025126892F834201218D172E8
:10273C00817ADFF89025126892F836201143817265
:10274C00DFF88005006890F83400C0B2DFF8AC15F3
:10275C00415CDFF87025126892F835209143C0B2C5
:10276C00DFF898258154C0B2DFF89015405C002842
:10277C000BD1DFF884050078DFF84815096891F86B
:10278C0036108843DFF870150870704710B490F855
:10279C003420D2B25318DB7A90F83540A343D2B22E
:1027AC005418E372D2B25218D27A002A05D18A7A1E
:1027BC0090F8360032EA0000887210BC704770B492
:1027CC0090F8342090F8363090F83540086810E0D6
:1027DC00D2B21518ED7AA543D2B21618F572D2B250
:1027EC001518ED7A002D02D1857A9D438572091D4D
:1027FC0008680028ECD170BC70470021817200F28F
:10280C000B00002103E000220270401C491CC9B2DD
:10281C000429F8D3704780B54FF4A071DFF8E404B5
:10282C0000F0D8F8DFF8DC14DFF8DC24002009E035
:10283C0000230B704A603F23CB7300230B742031B1
:10284C002032401C80B20928F2D3002008700020EE
:10285C0048603F20C87300200874DFF8B004DFF82C
:10286C00A414016001BDDFF8840400210160BC48A0
:10287C0000210170BB4800210170DFF89404002195
:10288C000170DFF8440400210170DFF850040021CE
:10289C000160DFF84C0400210160DFF878040021AE
:1028AC000160DFF8400400210160DFF83C040021E6
:1028BC0001707047DFF8400400210170DFF83C1410
:1028CC00002003E000220A70491C401CC0B20428FE
:1028DC00F8D3DFF8FC0300210170DFF8F0030021CE
:1028EC000170DFF8F40300210160DFF8D803002148
:1028FC000160704710B586B003200490002003904F
:10290C0080200290DFF8100401904FF6FF700090C9
:10291C001F23DFF8082400210FF2791000F034FC9B
:10292C00040005AADFF8F8131F2000F095FC06B090
:10293C0010BD10B586B003200490002003908020B9
:10294C000290DFF8E00301904FF6FE7000901E231A
:10295C00DFF8D42300210FF2591000F015FC04000D
:10296C0005AADFF8C8131E2000F076FC06B010BDD7
:10297C0080B54FF4FD61DFF8B80300F02BF880212F
:10298C00DFF8500300F026F8DFF8A413DFF8A423D7
:10299C0000200BE04A613F2381F84C30002381F882
:1029AC004D3001F25C0102F25C02401CC0B21528F1
:1029BC00F0D3002048613F2081F84C00002081F8C2
:1029CC004D00CC4800210160DFF86C03DFF8601388
:1029DC00016001BD03E000220270401C491E89B257
:1029EC000129F8D2704710B5002400F0A9F90400B1
:1029FC005B480078002820D15A48007800281CD168
:102A0C0000F01FF8B1480078B1490978884214D019
:102A1C00AE480078AF4951F82000AF490860AE4885
:102A2C000068806B401CAC4909688863AB4800683F
:102A3C00401CAA49086000F098F9200000F084F9C5
:102A4C0010BDAD480078AE49405CC0B20100C9B2BF
:102A5C00AA4A895CAA4A895C11EBC0009B490870A0
:102A6C007047002204E00B780370491C401C521C78
:102A7C000B78002BF7D1002101701000C0B2704709
:102A8C00002101E0401C491C0278002AFAD1080000
:102A9C00C0B2704780B5002000F052F99049096827
:102AAC00491C8F4A116000F04FF900F09FF9F3E7D1
:102ABC0080B5002002E0C82000F0FAFA8A480078BD
:102ACC000028F8D0874800686421B0FBF1F08549F4
:102ADC00086084480068002805D1984800210170DE
:102AEC00FF2000F03FFC00F02BF98A497C4A126869
:102AFC000A607B4900220A6000F026F985480068CC
:102B0C0078490968B0FBF1F0D0F164008B4908708A
:102B1C0000F070F900F004F8642000F0C9FAE2E764
:102B2C001CB5002417E000A92000C0B200F0D6FBB1
:102B3C00C0B200280ED1E4B2664850F82400002838
:102B4C0008D0012806D0C168826812EB810141646B
:102B5C0001998164641CE4B2202CE4D313BD000001
:102B6C009A2100209B2100202DE9F24F0500160030
:102B7C001F00DDF82880DDF82C900C9C5FF0000A1B
:102B8C0000F0DEF882466C48D0F800B0BBF1000FC4
:102B9C0000F09280DBF8140067490860504600F0A2
:102BAC00D3F80098CBF800008BF8325000208BF84B
:102BBC00300000208BF831000020ABF82E00CBF851
:102BCC000490CBF80C80CBF80860ABF81040ABF855
:102BDC00127000208BF83700EDB2E8088BF8340047
:102BEC0015F007008BF8330001209BF93410884056
:102BFC008BF8360001209BF9331088408BF8350098
:102C0C000020CBF81C000020CBF820000020CBF8D3
:102C1C0028000020CBF824000020CBF8380000203E
:102C2C00CBF840000020CBF83C000020CBF844004F
:102C3C000020CBF848003F208BF84C0000208BF88C
:102C4C004D00584600F01CF9584600F0CBF800F047
:102C5C0077F88246EDB21F4840F825B02548006849
:102C6C00CBF814000020CBF818002248006800288C
:102C7C0003D020480068C0F818B01E48C0F800B057
:102C8C001D4800789BF8361008431B4908709BF8C8
:102C9C0034001A49405C9BF8351008439BF83410FB
:102CAC00164A88541A480078401C19490870504636
:102CBC0000F04AF8002003E0504600F045F84220AE
:102CCC00BDE8F28F382100209F2100209D2100209B
:102CDC009C210020641E0020402100201C2100208B
:102CEC003421002028210020992100204821002097
:102CFC00A1210020442100209E2100203021002011
:102D0C00304A0008F01B0020101C0020202100205D
:102D1C00A02100202C210020F0170020EC1900200D
:102D2C00F04C0008F0150020EC170020004D0008B6
:102D3C0008000020640000203C2100209821002085
:102D4C00EFF3108072B6704780F3108870471B4801
:102D5C00FF210170002080F30988194801210170BE
:102D6C0018481949016062B6FEE716481649016019
:102D7C007047144814490160704772B6EFF309802C
:102D8C0028B1203880E8F00F10490968086000B5B8
:102D9C000F4880475DF804EB0E480F490A78027023
:102DAC000A480E490A680260106890E8F00F20305B
:102DBC0080F309884EF0040E62B6704722ED00E0F5
:102DCC009F21002004ED00E00000001038210020BD
:102DDC00852E00089C2100209D21002040210020F0
:102DEC007047704780B500F0C6FE01BD80B500F09D
:102DFC00C6FE01BD80B500F0C3FE01BD030010008E
:102E0C005FF080720260001F0360001F7FF0010200
:102E1C000260001F5FF012320260001F5FF003328D
:102E2C000260001F5FF002320260001F5FF001328F
:102E3C000260001F0160001F5FF011310160001F74
:102E4C005FF010310160001F5FF009310160001F5D
:102E5C005FF008310160001F5FF007310160001F57
:102E6C005FF006310160001F5FF005310160001F4B
:102E7C005FF004310160704780B500F082FE01BD47
:102E8C0080B500F082FE01BD80B500F07FFE01BD73
:102E9C0080B5FFF755FF13490978491C114A117089
:102EAC00FFF752FFFFF76DFBFFF7DDFA01BD80B5B1
:102EBC0000F0B9FE4FF47A71B0FBF1F0401E0A49F4
:102ECC0008600A48FF2101700948006850F00500AD
:102EDC00074908600648006850F002000449086081
:102EEC0001BD00009A21002014E000E023ED00E079
:102EFC0010E000E080B58C211148FFF76BFD104904
:102F0C00104A00200BE000230B704A603F238B72A9
:102F1C000023CB7201F21C0102F21C02401C80B295
:102F2C000428F0D300200870002048603F208872ED
:102F3C000020C87201480249016001BD2421002013
:102F4C00D81D0020F41D00202C482D4908002D49C7
:102F5C0008002D4908002D4908002D4908002D496D
:102F6C0008002D4908002D4908002D4908002D495D
:102F7C0008002D4908002D4908002D4908002D494D
:102F8C0008002D4908002D4908002D4908002D493D
:102F9C0008002D4908002D4908002D4908002D492D
:102FAC0008002D4908002D4908002D4908002D491D
:102FBC0008002D4908002D4908002D4908002D490D
:102FCC0008002D4908002D4908002D4908002D49FD
:102FDC0008002D4908002D4908002D4908002D49ED
:102FEC0008002D4908002D4908002D4908002D49DD
:102FFC0008002D4908002D49080070475643000869
:10300C00944D0008AE4300086A4800089648000832
:10301C00B6480008BE4C0008CA4C00089C4D00087D
:10302C009E4D0008A04D0008A24D0008A44D0008BC
:10303C00A64D0008A84D0008AA4D0008AC4D00088C
:10304C00AE4D0008B04D0008B24D0008B44D00085C
:10305C00B64D0008B84D0008BA4D0008BC4D00082C
:10306C00BE4D0008C04D0008C24D0008C44D0008FC
:10307C00C64D0008C84D0008CA4D0008CC4D0008CC
:10308C00CE4D0008D04D0008D24D0008D44D00089C
:10309C00D64D0008D84D0008DA4D0008DC4D00086C
:1030AC00DE4D0008E04D0008E24D0008E44D00083C
:1030BC0010B50400002030490978012928D2A4B2A7
:1030CC00012C25D3FFF73CFE2C49096891F83410EC
:1030DC00C9B22B4A8A5C294B1B6893F835309A434A
:1030EC00C9B2274BCA54C9B2254A895C002908D1F8
:1030FC0024490978214A126892F836209143214AD2
:10310C0011701E490968CC85FFF71EFEFFF76BFC9A
:10311C0010BD38B5184C2478012C01D3552029E06A
:10312C00C0B24FF46164C9B23C25694304FB001082
:10313C00D2B210184FF47A719BB24FF47A7202FB30
:10314C0003F24FF47A73B2FBF3F201FB0020040C90
:10315C0080B280B2FFF7ACFF08E04FF40040FFF7FD
:10316C00A7FF4FF40040FFF7A3FF641EA4B2012C8D
:10317C00F3D2002032BD00009A210020382100201B
:10318C00302100209E2100202DE9F34F83B0904682
:10319C001E000E9CDDF83C90DDF840A0DDF844B03C
:1031AC00129D0027FFF7CCFD0700DFF870020078B6
:1031BC00012804D33800FFF7C7FD3C2049E0F6B2E4
:1031CC00DFF8440250F8260000283ED1F6B2DFF8B2
:1031DC003802012140F826103800FFF7B5FD2A000F
:1031EC0092B25146484600F01BF92B009BB2424666
:1031FC0004990398FFF702FEADB20295CDF804B026
:10320C00CDF800A023009BB24A4601003000C0B2AA
:10321C00FFF7AAFC0400E4B2002C07D1DFF8F80198
:10322C00007801280ED1FFF7DEFB0BE0FFF788FDDD
:10323C000700F6B2DFF8D001002140F82610380064
:10324C00FFF782FD2000C0B203E03800FFF77CFDE1
:10325C00282005B0BDE8F08FF8B507000E0014006B
:10326C0000256E480078012802D31220207034E02B
:10327C00FFF766FD0500FFB2FF2F03D1634800681E
:10328C0090F83270FFB2604850F82770002F05D1CB
:10329C002800FFF759FD432020701EE0012F05D1B7
:1032AC002800FFF751FD4320207016E03000FFF797
:1032BC00E7FBC0B2102805D32800FFF745FD4120DD
:1032CC0020700AE0310017F14C00FFF7CAFB060032
:1032DC002800FFF739FD00202070F1BD2DE9F041E9
:1032EC0006000C0000250020206000206060FFF725
:1032FC0027FD0500F6B2FF2E03D14448006890F874
:10330C003260F6B2404850F82600002804D128005C
:10331C00FFF71AFD432023E0012804D12800FFF712
:10332C0013FD43201CE0017CC90704D42800FFF7DF
:10333C000BFD452014E00027C668D0F80880280053
:10334C00FFF702FD00E07F1C404610F10408006806
:10335C000028F8D0B8002060F01B800060600020CE
:10336C00BDE8F08170B506000024FFF7E9FC04000D
:10337C00F6B2FF2E05D12548006890F83260012581
:10338C0009E02248006890F83200F6B2864201D17A
:10339C00012500E00025F6B21B4850F82600002855
:1033AC0004D12000FFF7D0FC48202CE0012804D1E8
:1033BC002000FFF7C9FC432025E090F83410C9B277
:1033CC00134A8A5C90F835309A43C9B2104BCA54F0
:1033DC00C9B20F4A895C002906D10E49097890F8C8
:1033EC00362091430B4A117090F8301051F00801BF
:1033FC0080F830102000FFF7A7FCEDB2012D01D1B1
:10340C00FFF7F1FA002070BD641E00203821002067
:10341C00302100209E2100209F2100209A21002095
:10342C00D30708D5920704D405E0491E0022026098
:10343C00001D0029F9D1704700B587B000F0ACFD34
:10344C00FEF7FBFF032004900020039080200290E5
:10345C00DFF8E8050190032000900323DFF8E02556
:10346C0000210FF22100FFF78FFE8DF8140005AA42
:10347C00DFF8D0150320FFF7EFFEFFF73EF8002032
:10348C0007B000BD00B587B000F084FBFFF70FFD5F
:10349C00FFF754F800F09BFA00F0B9F800F0C7F809
:1034AC00002000F0C9FC4FF47A73002200210020A8
:1034BC00FFF72FFE03200490002003908020029041
:1034CC00DFF884050190072000900723DFF87C25A6
:1034DC0000210FF2A900FFF757FE8DF8140005AA82
:1034EC00DFF86C150720FFF7B7FE642300220021DC
:1034FC000020FFF70EFE0320049000200390802094
:10350C000290DFF850050190082000900823DFF8A6
:10351C00482500210FF29500FFF736FE8DF81400B8
:10352C0005AADFF838150820FFF796FE6423002261
:10353C0000210020FFF7EDFD0320049000200390F4
:10354C0080200290DFF818050190092000900923D3
:10355C00DFF8102500210FF28500FFF715FE8DF81E
:10356C00140005AADFF800150920FFF775FE642387
:10357C00002200210020FFF7CCFDF8E780B50120E8
:10358C0000F038FC4FF4FA63002200210020FFF712
:10359C00C0FD012000F050FC012000F06FFC642302
:1035AC00002200210020FFF7B4FDF5E780B50220D2
:1035BC0000F020FC4FF4FA63002200210020FFF7FA
:1035CC00A8FD022000F038FC022000F057FCC823B4
:1035DC00002200210020FFF79CFDF5E780B50320B9
:1035EC0000F008FC4FF4FA63002200210020FFF7E2
:1035FC0090FD032000F020FC032000F03FFC4FF472
:10360C009673002200210020FFF783FDF4E780B5BC
:10361C00002000F0B9FDDFF85414086000AADFF8B0
:10362C005014DFF848040068FEF7D8FE01BD00B561
:10363C0087B003200490002003904FF48070029018
:10364C00DFF8300401900C2000900C23DFF82824C4
:10365C0000210FF29500FFF797FD8DF8140005AAD5
:10366C00DFF818140C20FFF7F7FD0320049000205E
:10367C00039080200290DFF8080401900420009051
:10368C000423DFF8002400210FF21900FFF77CFD62
:10369C008DF8140005AADFF8F0130420FFF7DCFD09
:1036AC0007B000BD70B5002401260EE0761CF6B202
:1036BC003100DFF8B803006800F01CFE2C00142366
:1036CC00002200210020FFF724FD012000F007FB61
:1036DC000500EDB2012DF1D1E4B2002CEED1F6B221
:1036EC00022EE3D10126E2E738B500F023F80023DF
:1036FC00012200210020FFF70CFD0124012501E02F
:10370C0000F0C6F800AA6421DFF86003006800F03E
:10371C0063FD9DF80010002900D10400AC4204D0D8
:10372C004FF6FF70FEF771F82500022CE8D000F080
:10373C0001F8E7E780B5DFF85413DFF8540300F025
:10374C0005FEDFF85013DFF8500300F0FFFDDFF843
:10375C004C13DFF84C0300F0F9FDDFF84813DFF8E9
:10376C00480300F0F3FDFEF782FF01006420B1FB7B
:10377C00F0F03030DFF8302390736420B1FBF0F2BE
:10378C0000FB12100A22B0FBF2F03030C64A107463
:10379C000A20B1FBF0F200FB12103030C249487421
:1037AC00C249C34800F0D2FD4FF47A710422C148DB
:1037BC0000F0B2F9C049C14800F0C8FDC04801781A
:1037CC000A20B1FBF0F03030BC4A10730A20B1FB78
:1037DC00F0F200FB12103030B8494873B949BA48BE
:1037EC0000F0B4FD00F017FAB849B0FBF1F10A2073
:1037FC00B1FBF0F03030B44A10730A20B1FBF0F298
:10380C0000FB12103030B0494873B149B14800F098
:10381C009DFDB14801680822B04800F07DF9B0491F
:10382C00B04800F093FDB04801680822AF4800F0A2
:10383C0073F99A49AE4800F089FD1F20FDF7D6FFB9
:10384C0093490020FEF7ACF893491820FEF7A8F82E
:10385C000020FDF7CBFF92493020FEF7A1F89249EA
:10386C004820FEF79DF892496020FEF799F893499D
:10387C007820FEF795F894499020FEF791F8954939
:10388C00A820FEF78DF89749C020FEF789F801BDF6
:10389C0038B5984C00257D497D4800F057FD7D4991
:1038AC007D4800F053FD94497D4800F04FFD1DE02C
:1038BC00202202702022427020228270C9B20A2279
:1038CC0091FBF2F23032C270C9B20A2291FBF2F3D0
:1038DC0002FB131130310171202141710E2214F1C0
:1038EC004C01801D00F038FDA4696D1C002C1FD00C
:1038FC0094F83210EDB2002D09D0022D0BD008D364
:10390C00042D0CD009D3062D0DD00AD30DE066483A
:10391C000CE067480AE0694808E06B4806E06D482F
:10392C0004E0704802E0724800E000200028BFD19B
:10393C00EDB2062D03D259496D4800F007FDEDB2EA
:10394C00052D03D25549674800F000FDEDB2042D5A
:10395C0003D252495F4800F0F9FCEDB2032D03D2BB
:10396C004E49594800F0F2FC1F20FDF73FFF484933
:10397C000020FEF715F848491820FEF711F84FF40F
:10398C007840FDF733FF46493020FEF709F8002058
:10399C00FDF72CFF44494820FEF702F8444960200B
:1039AC00FDF7FEFF45497820FDF7FAFF46499020C8
:1039BC00FDF7F6FF4749A820FDF7F2FF4949C02063
:1039CC00FDF7EEFF4A49D820FDF7EAFF31BD80B57F
:1039DC0000F0E8FC0FF2110000F0F6FCFA2000F009
:1039EC00F6FC00F0EBFD01BD80B544480068401CBE
:1039FC0042490860012000F072F94149087000F05A
:103A0C00B0F9C0F3001111F001013E4A1170C0F37E
:103A1C00400111F001013C4A1170C0F3800111F01A
:103A2C0001013A4A1170C0F3C00111F00101384A8A
:103A3C00117010F001003749087001BDF00B002027
:103A4C00EC0D0020404D0008F00F0020EC11002080
:103A5C007C4D0008F0110020EC130020844D000870
:103A6C00F0130020EC1500208C4D000814210020D0
:103A7C00E04C0008F0070020EC0B00204C4D000837
:103A8C00F00D0020EC0F0020584D0008804B000872
:103A9C0024200020984B00083C200020B04B00084C
:103AAC0054200020C84B00086C200020E04B00087C
:103ABC008420002092200020F84B00089C2000203D
:103ACC0098210020104C0008B420002040420F0028
:103ADC00284C0008CC20002048210020D6200020B3
:103AEC00404C0008E42000201C210020EE20002087
:103AFC00FC20002008000020584C00081821002051
:103B0C009221002097210020962100209321002053
:103B1C00942100209521002070B40023012400255D
:103B2C0002E00A2674436D1CEDB2D2B2561EB542A9
:103B3C00F7DB002C1DD0B1FBF4F2DBB2002B0DD166
:103B4C00002A03D001233032027009E0012C02D18B
:103B5C003022027004E02022027001E03032027048
:103B6C00401CB1FBF4F204FB12110A22B4FBF2F478
:103B7C00DFE770BC704780B500F045FC01BD7047B5
:103B8C00704780B500F047FC01BD704780B500F070
:103B9C0054FC01BD80B5FEF77DFA5FF48030FEF772
:103BAC00A8FAFEF7D0FA0020FEF708FB0020FEF77B
:103BBC0019FB4FF48060FEF70BFB4FF40040FEF74F
:103BCC001CFB022000F056FD102000F05FFD5FF49E
:103BDC0080115FF48030FEF7D3FA0120FEF7DBFA98
:103BEC003920FEF7B4FB0028FAD00220FEF7D7FAF2
:103BFC00FEF7DFFA0828FBD100F019F800F0E6F820
:103C0C0000F04EF800F092F8FDF7D8FD4FF6FF707B
:103C1C00FDF7FBFD01BD00B585B000A8FEF7F7FA76
:103C2C00019805B000BD80B5FFF7F5FF02BD00B5EA
:103C3C0087B001214FF40070FEF749FB01211020E1
:103C4C00FEF745FB1020ADF8000000208DF80300B6
:103C5C0000A9AB48FEF784F90020019000208DF8F4
:103C6C00080001208DF809005FF46020039000200B
:103C7C00049001208DF8140001A9A24800F014FD55
:103C8C00022301220E219F4800F04EFD01219D4888
:103C9C0000F030FD01219B4800F039FD07B000BD5C
:103CAC0080B501210420FEF712FB0120ADF80000C5
:103CBC0004208DF8030000A99348FEF751F9012167
:103CCC001020FEF704FB4FF40050ADF80000042068
:103CDC008DF8030000A98C48FEF742F901BD10B520
:103CEC000024C0B2012804D01DD3032812D009D35C
:103CFC0019E04FF400718448FEF798F9002800D1C0
:103D0C00012410E001218148FEF790F9002800D130
:103D1C00012408E04FF400517948FEF787F9002898
:103D2C0000D10124FFE72000C0B210BD80B50121F5
:103D3C006020FEF7CCFA4FF4A240ADF8000004204E
:103D4C008DF8030000A97248FEF70AF90320ADF8BC
:103D5C00000004208DF8030000A96E48FEF700F95E
:103D6C0001BD10B5002402216A48FEF75FF9C0B20C
:103D7C00002801D154F0040401216648FEF756F9DD
:103D8C00C0B2002801D154F008044FF4807160488F
:103D9C00FEF74CF9C0B2002801D154F001044FF4E5
:103DAC0080415B48FEF742F9C0B2002801D154F0C3
:103DBC0002044FF480515648FEF738F9C0B200287F
:103DCC0001D154F01004E4B2200010BD80B50121E3
:103DDC000820FEF77CFA4FF44870ADF80000032081
:103DEC008DF8020010208DF8030000A94648FEF75C
:103DFC00B7F801BD80B5C0B2002805D002280FD09D
:103E0C0008D3032811D016E04FF448713E48FEF752
:103E1C001EF910E04FF400713B48FEF718F90AE068
:103E2C0020213948FEF713F905E04FF4807136482C
:103E3C00FEF70DF9FFE701BD80B5C0B2002805D033
:103E4C0002280FD008D3032811D016E04FF4487184
:103E5C002D48FEF7F9F810E04FF400712848FEF7F2
:103E6C00F3F80AE020212848FEF7EEF805E04FF4BD
:103E7C0080712548FEF7E8F8FFE701BD10B5040096
:103E8C002148FEF7DEF8E4B2002C05D0022C1BD042
:103E9C000CD3032C24D031E00120FFF7EFFF0220DC
:103EAC00FFF7ECFF0320FFF7E9FF27E0800505D4BF
:103EBC004FF400711448FEF7C7F804E04FF400719A
:103ECC001148FEF7C4F819E0800604D420210E48EE
:103EDC00FEF7BAF803E020210B48FEF7B8F80DE026
:103EEC00C00505D44FF480710748FEF7ADF804E027
:103EFC004FF480710448FEF7AAF8FFE710BD0000EC
:103F0C000010014000240140000C01400008014059
:103F1C000014014000180140E0B54FF6FF70ADF8F9
:103F2C0004000020ADF800000020ADF806000020D1
:103F3C00ADF8020001210120FEF7D9F900A95FF0CC
:103F4C00804000F057FC00215FF0804000F083FCC3
:103F5C0001224FF480715FF0804000F079FC012168
:103F6C005FF0804000F066FC07BD80B55FF08040DC
:103F7C0000F073FC02BD50F8041B61B150F8042B27
:103F8C00D30744BFA9F101039A18002342F8043B5C
:103F9C00091FFAD1EFE7704780B500F061FC01BD55
:103FAC0080B5002000F0D3F801BD80B5012000F0F1
:103FBC00CEF801BD80B5022000F0C9F801BD80B576
:103FCC00032000F0C4F801BD80B5042000F0BFF858
:103FDC0001BD80B5052000F0BAF801BD80B5062002
:103FEC0000F0B5F801BD80B5072000F0B0F801BDB8
:103FFC0080B5082000F0ABF801BD80B5092000F0B9
:10400C00A6F801BD80B50A2000F0A1F801BD80B56D
:10401C000B2000F09CF801BD80B50C2000F097F847
:10402C0001BD80B50D2000F092F801BD80B50E20C9
:10403C0000F08DF801BD80B50F2000F088F801BDAF
:10404C0080B5102000F083F801BD80B5112000F080
:10405C007EF801BD80B5122000F079F801BD80B565
:10406C00132000F074F801BD80B5142000F06FF837
:10407C0001BD80B5152000F06AF801BD80B5162091
:10408C0000F065F801BD80B5172000F060F801BDA7
:10409C0080B5182000F05BF801BD80B5192000F048
:1040AC0056F801BD80B51A2000F051F801BD80B55D
:1040BC001B2000F04CF801BD80B51C2000F047F827
:1040CC0001BD80B51D2000F042F801BD80B51E2059
:1040DC0000F03DF801BD80B51F2000F038F801BD9F
:1040EC0080B5202000F033F801BD80B5212000F010
:1040FC002EF801BD80B5222000F029F801BD80B555
:10410C00232000F024F801BD80B5242000F01FF816
:10411C0001BD80B5252000F01AF801BD80B5262020
:10412C0000F015F801BD80B5272000F010F801BD96
:10413C0080B5282000F00BF801BD80B5292000F0D7
:10414C0006F801BD80B52A2000F001F801BD10B5BC
:10415C00040000F089FB0B490978491C094A1170CD
:10416C0000F086FB2A2C06D2054850F824000100EA
:10417C00002900D08047FEF776F910BD0000000042
:10418C00301D00209A21002038B50400002055492C
:10419C000978012901D300201DE0FEF7D1FD524919
:1041AC000D6851490968002904D04F4909684968CC
:1041BC004D4A1160FEF7C8FD002D0BD00120287070
:1041CC00002028816C603F20E873002028742800B0
:1041DC00FEF713FB280032BD2DE9F04105000E005F
:1041EC00140000272878012803D00120207000201B
:1041FC0075E03C480078012803D302202070002091
:10420C006DE03A480078012803D30D20207000207F
:10421C0065E0FEF795FD0700D5F80480B8F1000FB6
:10422C0008D0002068603800FEF78EFD002020705A
:10423C00404654E02E48006890F8300050F00200E0
:10424C002B49096881F8300029480068002180F862
:10425C00311027480068C6852800FEF751FA38004F
:10426C00FEF772FDFEF7BFFBFEF76AFD0700204864
:10427C00006890F83100002802D0022807D00BE02B
:10428C001B480068D0F82480002020700DE05FF0FF
:10429C0000080E20207008E0290015480068FEF781
:1042AC0075FA5FF000080A202070114800680021A0
:1042BC0080F830100E480068002180F831100C484E
:1042CC0000680021C1610A480068002101620848A9
:1042DC000068002141623800FEF736FD4046BDE81B
:1042EC00F08100009A210020202100209B21002039
:1042FC003821002070B504000D000026207801281C
:10430C0001D0012020E0FEF71BFD0600A07A00285A
:10431C000DD00023022229002000FEF7ABF9040087
:10432C003000FEF711FDFEF75EFB00200CE060682C
:10433C00002804D03000FEF707FD142004E065606F
:10434C003000FEF701FD002070BD010080B55FF06C
:10435C00FF3200F001F802BD70B4002801D100203A
:10436C001DE0002901D1002019E0002A01D1002014
:10437C0015E003001C00641C002505E00E781E707F
:10438C005B1C641C491C6D1C002C06D0002904D03D
:10439C000E78002E01D09542F0D30021197070BC1C
:1043AC0070470A0080B5642000F011F8002000F07E
:1043BC000BF800F046F8FFF7AFFD724800210160E2
:1043CC0071480021018001BD704908607047704937
:1043DC000880704738B50024FEF7B2FC0400FFF7E4
:1043EC00C4FD69490988411A674A1080654800680C
:1043FC0089B2081863490860624805682000FEF716
:10440C00A3FC280032BD10B50400FFF7E3FF2064C5
:10441C000020E06310BD80B5FFF7DCFF5D49096843
:10442C00C96B41185B4A1268126C891A594A126896
:10443C00D16359490968086401BD80B5FFF7CAFF0B
:10444C0001BD00B587B003200490002003908020AC
:10445C000290524801901C2000901C23504A0021CD
:10446C000FF21900FEF790FE8DF8140005AA4D49C5
:10447C001C20FEF7F1FE05A807B000BDF8B500241E
:10448C000FE0A4B24848002140F82410A4B24748D9
:10449C00002140F82410A4B24548002140F8241013
:1044AC00641CA4B2142CECD33948038800220021DC
:1044BC000020FEF72EFE35480068002802D0334855
:1044CC0000688047002400253A4E15E0706C316876
:1044DC00401A6421484300F0D9F90700F0688000C5
:1044EC0000F0D4F90100380000F0E0F9A4B22F4933
:1044FC0041F82400B669641CA4B2142C27D2002EF7
:10450C0025D0012E23D0F06BA4B2274951F82410EA
:10451C00401AA4B2284951F82410490811EB500054
:10452C00A4B2254941F82400A4B21F48F16B40F80D
:10453C002410A4B2204850F824004519F068002833
:10454C00C4D1A4B21948002140F82410D2E70024A9
:10455C00A4B2142CA8D2A4B2174850F82400642199
:10456C00484300F093F90600280000F08FF9010091
:10457C00300000F09BF9A4B20D4941F82400641CF2
:10458C00E6E7000050210020902100204C21002063
:10459C008E2100203821002040210020F01900201D
:1045AC00EC1B0020104D0008D41F0020341F0020ED
:1045BC00E41E002008000020841F002080B5DFF8D6
:1045CC00780000210160DFF8740000210170DFF831
:1045DC00700000210160DFF86C0000210160DFF841
:1045EC00680000210160DFF864000021016000F028
:1045FC00DBF9DFF85C0000210160DFF858000021D6
:10460C000160DFF8540000210160DFF85000002148
:10461C000160DFF84C0000210160DFF84800002148
:10462C000160DFF8440000210160DFF84000DFF892
:10463C004010016001BD000070210020A22100206B
:10464C0074210020782100207C2100208021002072
:10465C0054210020582100205C21002060210020E2
:10466C0064210020682100206C210020842100207E
:10467C00785634120B49096811F03801094A116057
:10468C0008490968084307490860704705490968E3
:10469C0031F01001034A11600249096808430149CD
:1046AC00086070470020024030B4002300224468A8
:1046BC002300DFF8384123400C680D7954EA0524B7
:1046CC00234343608368DFF828412340CC688D681E
:1046DC002C434D7954EA450423438360C36A33F475
:1046EC007003097C491E0A43D2B253EA0253C362D7
:1046FC0030BC7047C9B2002904D0816851F0010167
:10470C00816003E081684908490081607047C9B243
:10471C00002904D0816851F4A001816003E0816814
:10472C0031F4A00181607047F0B400240025C9B2B7
:10473C000A2911D3C4680725B1F10A0603277E4361
:10474C00B540AC43DBB2B1F10A050326754313FA4D
:10475C0005F52C43C4600EE004690725032606FB0F
:10476C0001F6B540AC43DBB2032505FB01F513FAAA
:10477C0005F52C430461D2B2072A10D2446B1F23D7
:10478C00551E0526754313FA05F5AC43C9B2521EE6
:10479C0005235A4311FA02F52C43446324E0D2B2A8
:1047AC000D2A10D2046B1F23D51F0526754313FA4F
:1047BC0005F5AC43C9B2D21F05235A4311FA02F5D1
:1047CC002C43046310E0C46A1F23B2F10D050526C7
:1047DC00754313FA05F5AC43C9B20D3A05235A4398
:1047EC0011FA02F52C43C462F0BC7047FFFEF0FFD7
:1047FC00FDF7F1FF10B4028812F08F0202800288DC
:10480C00CB884C8823431A4302808A8882850A8885
:10481C00028501228282054A904202D0044A9042CB
:10482C0001D1097A018610BC70470000002C0140B0
:10483C0000340140C9B2002904D0018851F00101B3
:10484C00018004E0018840F2FE3211400180704783
:10485C0001858282704781847047808C704710007C
:10486C0072B6704762B67047EFF3108072B670473D
:10487C0080F310887047B0FA80F0704790FAA0F07F
:10488C00704730BF704720BF70470100002800BF41
:10489C000AD0B0FA80F18840D1F19D01C905020619
:1048AC0072F1004241EB10207047200010B5FF233D
:1048BC0013EAD0541DBF13EAD1529C429A4239E0FC
:1048CC00A41ADA0780EA0103134042EA012142EA02
:1048DC000020421A3CBF641E01EB4202090AB2FBE3
:1048EC00F1FE01FB1E221202B2FBF1F001FB1022C1
:1048FC006EF30F201202B2FBF1FE4EEA00207F3461
:10490C0006DDFE2C24DA53EA500050EBC45010BDE7
:10491C00D4F1020401FB1E2240F08071192C1DDC25
:10492C0021FA04F0C4F12004A140114371F10042BA
:10493C00584110BD9C421ABF03EAD1529A420FE073
:10494C0080EA010E0EF00043400004D0490016D15D
:10495C0043F0FF4010BD490008BFD343180010BD01
:10496C009C4205D1D21AF7D001F00041484010BD4D
:10497C004A0212BF0846484000F0004010BD4AB938
:10498C000902B1FA81F2914044B1A418C00140F07F
:10499C0000409EE7C90141F0004152420002B0FACA
:1049AC0080F4A040141B94E780B5002000F00EF8B2
:1049BC000449086000AA044902480068FDF70EFD8E
:1049CC0001BD000088210020204D000838B50400EE
:1049DC00002012490978012901D300201DE0FEF7BF
:1049EC00AFF90F490D680E490968002904D00C492C
:1049FC00096849680A4A1160FEF7A6F9002D0BD028
:104A0C00032028702C81002068603F20E873002070
:104A1C0028742800FDF7F1FE280032BD9A210020F1
:104A2C002021002000000100020001000300010011
:104A3C00020001000400010002000100030001005B
:104A4C00020001000500010002000100030001004A
:104A5C00020001000400010002000100030001003B
:104A6C000200010006000100020001000300010029
:104A7C00020001000400010002000100030001001B
:104A8C00020001000500010002000100030001000A
:104A9C0002000100040001000200010003000100FB
:104AAC0002000100070001000200010003000100E8
:104ABC0002000100040001000200010003000100DB
:104ACC0002000100050001000200010003000100CA
:104ADC0002000100040001000200010003000100BB
:104AEC0002000100060001000200010003000100A9
:104AFC00020001000400010002000100030001009B
:104B0C000200010005000100020001000300010089
:104B1C00020001000400010002000100030001007A
:104B2C000200010010B5084979441C31074C7C4443
:104B3C001A34A14206D0081D0A685118884701464C
:104B4C00A142F8D110BD00BF0800000028000000F1
:104B5C0027F4FFFF9C21000008000020000000004B
:104B6C0007D5FFFF080000007402000000000020C1
:104B7C000000000020204D69637269756D2075433B
:104B8C002F4F532D4949202000000000535420532F
:104B9C00544D33322028436F727465782D4D332970
:104BAC000000000020202020202020202020202079
:104BBC0020202020202020200000000020207543F1
:104BCC002F4F532D49493A202056782E79792020A1
:104BDC000000000020205469636B526174653A2018
:104BEC002020787878782020000000002020435086
:104BFC00552055736167653A787820252020202050
:104C0C000000000020204350552053706565643A25
:104C1C007878204D487A2020000000002020235472
:104C2C0069636B733A207878787878787878202074
:104C3C000000000020202343747853773A207878C2
:104C4C007878787878782020000000002020507246
:104C5C00696F2020205461736B6E616D652020207C
:104C6C0000000000202020202020202020202020B8
:104C7C002020202020202020000000002020205375
:104C8C007472696E6720746F6F206C6F6E67202072
:104C9C000000000000F009F8002801D0FFF742FFE7
:104CAC000020FEF7C9FB00F002F80120704700F06D
:104CBC0001B840010746384600F002F8FBE7010056
:104CCC0080B5C046C046024A11001820ABBEFBE7B7
:104CDC002600020055736572204946204D626F789C
:104CEC000000000075432F4F532D49492049646C37
:104CFC006500000075432F4F532D494920537461B3
:104D0C007400000050726F6265204F5320506C7518
:104D1C0067496E0075432F50726F6265205465723F
:104D2C006D000000000000000102030401020304F6
:104D3C00060708095374617274205461736B000088
:104D4C005573657220492F46000000004B6579624F
:104D5C006F61726400000000FEE7FEE7FEE7FEE70D
:104D6C00FEE7FEE7C046C046C046C046FFF792FFCE
:104D7C004C454420310000004C45442032000000DA
:104D8C004C454420330000007856341202040608C7
:104D9C001C0014000200050010001F0001000000A0
:104DAC0005001000000000000000040000000400DA
:104DBC00000004000100040001000100010080005B
:104DCC00010016001000010080000100010020000D
:104DDC005C00E80301001E016E0E00002093000031
:044DEC00FFFF0000C5
:0400000508004D7131
:00000001FF
